:10000000FC7F002039050000290500002D050000B7
:1000100000000000000000000000000000000000E0
:10002000000000000000000000000000310500009A
:100030000000000000000000350500009D070000E2
:1000400010B5064C2378002B07D1054B002B02D0AE
:10005000044800E000BF0123237010BD60000020B1
:1000600000000000E413000008B5084B002B03D08B
:100070000748084900E000BF07480368002B03D089
:10008000064B002B00D0984708BDC046000000007A
:10009000E4130000640000205C0000200000000069
:1000A00010B52049204B0A78002A08D11F4A187839
:1000B00012788218D2B21A701D4A042010600A7891
:1000C0000132D2B20A701A78F02A08D9174A107889
:1000D0004042C0B2107018781278821817E0154AA2
:1000E0001C781078844214D21048047864B2002C32
:1000F0000FDA1478052C01D1462400E00524147091
:1001000002785242D2B202701C780278A218D2B29F
:100110001A700A781B789A4202D1054B04221A60A1
:1001200010BDC0467C00002001000020000000201F
:100130009C4400410200002070B50368041C988BA9
:100140001A1C0821FF32084226D080209983987219
:10015000112353704021144B917150715E68134DFF
:10016000C0202E40800506435E605E69354028430E
:1001700058610F4818600F4818615D680E482840A4
:100180008025AD02284358605868800B8003586072
:1001900000235171237105E0137ADA0602D5201C81
:1001A00000F036FB207970BD94010020FFFFFF8F27
:1001B0009400002014010020FF3F00F00023037191
:1001C0004371044B016083600B78022213430B7070
:1001D0007047C0463901000010B5234B2021DA6971
:1001E00022480A43DA6100F02FFA214800F02CFA85
:1001F000204A214B5A8000F05FFA204B01211A78E7
:100200000A431A709A78D107FCD41D4A1F2112683C
:10021000500B0840884200D10520940C21401F2932
:1002200000D11D219201520F072A00D10322800123
:10023000014312031143198519787F220A401A706D
:100240001A7804210F480A431A7058621A890C213F
:100250008A431A811A8901218A431A810021802246
:1002600000F061FF10BDC046000400400600180009
:100270000600190006400000000C0040005000413C
:100280002460800094010020F7B5141C1F4A5F0110
:1002900001971D1CD319061C5869271C4000400FEC
:1002A00003301033C74006D00F1C80225968120655
:1002B0000A435A6009E02F1C7B1E9F41144BBF016B
:1002C000FF18381C221C00F025FF01990F48083543
:1002D00042181761131C5269A104920B890C9203F6
:1002E0000A435A6159690B4A0A405A616B01F31873
:1002F0000222DA715979802252420A435A716B0103
:10030000F318DB799A07FAD5201CFEBD9401002072
:1003100014010020FF3F00F0F8B51A4E051C337899
:10032000141C002B12D1184B184A1A645A6C920BE9
:1003300092035A64586C164A02405A64A2235B0026
:10034000EA5C40200243EA54012333704827FF3718
:10035000EA5D0123134012D00B4B5A6C9204920CAD
:10036000A24202D25C6CA404A40C081C221C074903
:1003700000F0D0FE0123EB550023337000E01C1C7D
:10038000201CF8BD7D00002094010020D400002036
:10039000FF3F00F0FF3083792022002900D1102296
:1003A0001343837170470000084BFF305A69920B6A
:1003B00092035A6102230372827980235B421343C2
:1003C0008371037A9A07FCD57047C04694010020D8
:1003D00080235B421943C9B28172704770B5A02374
:1003E00003225B00C254134B134A5C6CC0211440BF
:1003F00089050C4346255C64FF35402444550F4D68
:1004000030261D6490256D0046555D6B15402943CF
:10041000922559636D0080214155094D1D63B0251A
:100420006D0044555C6F22405A67B2235B00C15493
:1004300070BDC04694010020FFFFFF8FD400002054
:1004400054010020024BDB68DA06FBD57047C0463A
:1004500000080040F8B5294B80215A68284F0A430C
:100460005A605A681E218A4302210A435A60BB69B6
:1004700008221343234EBB61012333703378DA071C
:1004800004D5204B5B785BB2002BF7DB1E4C80223F
:10049000A38C00259343A384FFF7D4FF1B4B1A685A
:1004A0008023920E92029B001343A362184BE362D7
:1004B00092235B00A384FFF7C5FFA38C02221343A2
:1004C000A384FFF7BFFFB56000F0F6F8114B73602F
:1004D00000F0F2F8226A104B134023620323B3604A
:1004E00000F0EAF80D4B736000F0E6F80C4A0D4B93
:1004F0001A603D727D72BD72FD72F8BD0040004110
:1005000000040040000C004000080040246080000F
:1005100080BB0A7C00070300FFFCFFFF030601000D
:10052000006CDC02040000200EBEFEE70DBEFEE7FC
:1005300005BEFEE702BEFEE71D4A1E4870B58242B8
:1005400004D11D4A1D4B93422CD10AE01C4C94420D
:10055000F7D00023D1188842F3D9E55804330D6051
:10056000F8E7184B02225A62174B0321D8780C2463
:1005700088431043D870DD780820A5430543DD701B
:10058000124B30269D7BB543202635439D739D7BC2
:10059000A54328439873987B884302439A7300F0DD
:1005A00093F804E09342DCD2002102C3FAE7FEE7AD
:1005B0000000002060000020880200206000002071
:1005C000E8130000FC700041005000410048004169
:1005D000074B98420AD8074B4208DA61064A1A804C
:1005E0001A7DD107FCD50130FF30F1E77047C046D6
:1005F000FFFF03000040004102A5FFFFF0B58008A7
:10060000002819D00D4C0E4B251C23802B7DDE07B6
:10061000FCD500239E008F5901339751102B01D038
:100620008342F7D1074E26802C7DE607FCD59C003F
:1006300012190919C01AE3E7F0BDC0460040004195
:1006400044A5FFFF04A5FFFF70B5431C1ED0840224
:10065000E40F0F4B010C6501E4014D1BE418631915
:1006600040331E78012216431E706B08E3183033A6
:100670000A401C7892000F2191408C431C70C0B23C
:1006800019789040021C0A43D2B21A7070BDC0465D
:1006900000440041064B82081968064B994201D17B
:1006A0000C2242430023934201D00133FBE7704701
:1006B00004000020006CDC02024B5B785BB2002B74
:1006C000FADB7047000C0040F8B5284D284E2A6828
:1006D00001321FD0EBB2002B1CD1264A264C1778D2
:1006E0000122174001D023600AE02268234B9A427E
:1006F00001D127600EE023602148FFF7CBFF276080
:100700001A4A136883F30888FF239D43174BB5608B
:100710005B681847FFF79EFE62B61A4B04241C6004
:10072000194B1A4A1C601A4B5A60316AC0220902DE
:10073000090A12060A43326200229A6007221A60EE
:1007400000F032F8134B051C1C70AB68281C98474E
:10075000114B002801D001221A701B78002BF4D015
:10076000002000F079FA00F0D1FAFCE70020000048
:1007700000ED00E038040040FC7F00203581730765
:1007800020A107008844004194440041BF030000B9
:1007900010E000E0000000207E00002008B5FFF718
:1007A0007FFC00F0B1FA08BD10B5054B054C236085
:1007B000FFF712FD201C2168FFF700FD201C10BD73
:1007C000005000411402002070B5051CC0B0081C88
:1007D000161C0C1C00F0AFFC40006A4603230230DC
:1007E0005370107076080123E218013A11785A000C
:1007F000002906D1281C69460023FFF745FD40B0BB
:1008000070BDB342F6DA684681520133ECE700006E
:10081000F7B5BA4A04681378B949271CFF37051C95
:10082000102038720B705378B648B74E0370937827
:100830003380D178338809020B4333801179B34B6D
:100840001980517918880902084318809079B049B5
:100850000880D2790888120202430A8040227A7105
:10086000A84F3A78A64F120238780F1C0243A948C5
:100870008446181C624500D1C2E020DC802149007A
:100880008A4200D16EE109DC812A00D192E0822AFD
:1008900000D195E0802A00D064E18BE081235B00E9
:1008A0009A4200D1CFE000DA58E1C0239B009A427F
:1008B00000D157E1984B9A4200D14FE152E1902389
:1008C0001B019A4269D015DCD023DB009A4222D06A
:1008D00088231B019A4269D0A023DB009A4200D0F2
:1008E00040E1201CFFF760FD3188286889B2FFF7DE
:1008F0006FFD3BE1894B9A4200D12FE100DC31E1F1
:10090000874B9A4200D11DE1864B9A4200D029E1E3
:1009100033886B7122E133881B0A012B08D10B88C5
:1009200012222868934201D80A8892B27E4911E1C6
:1009300033881B0A022B08D10B8843222868934274
:1009400001D80A8892B2794904E133881B0A032B43
:1009500000D007E13388DBB2012B17D0002B07D082
:10096000022B00D0FEE00A882868D2B2704911E05C
:10097000042201A86F4900F0CDFB3B8804222868BF
:10098000934201D83A8892B201A9E3E00A88286824
:100990006949D2B2FFF718FFE8E03388201C2B71B9
:1009A000FFF702FD201CFFF719FDDFE0291C01C93C
:1009B0000122CFE0614900230B8028680222CAE0AF
:1009C0005E4900220A801888502210405C4A10704C
:1009D0001E880F20304018801888032800D9C1E0F5
:1009E00012781B8808335B01E418A379002A01D030
:1009F0009B0600E0DB06DB0F0B8028680222A9E0E3
:100A000019887F2291434E4AC9B2117018880F216C
:100A1000014019803188002900D0A3E019880029FD
:100A200000D19FE01988032900D99BE012781B8828
:100A300008335B01E318002A02D020225A718DE0AE
:100A4000102159718AE002887F239A433C4BD2B22D
:100A50001A7001880F220A4002803288002A00D0D2
:100A600080E00288002A00D17CE00288032A00D9B5
:100A700078E01B78002B1FD0038808335B01E31854
:100A80009B799A066AD50388202208335B01E31814
:100A90001A71038808335B01E318DB795F065DD5C3
:100AA0000388402208335B01E318DA7103880222CD
:100AB00008335B01E3181EE0038808335B01E31889
:100AC0009B79D9064AD50388102208335B01E318C5
:100AD0001A71038808335B01E318DB799A063DD568
:100AE0000388202208335B01E318DA7103880122AE
:100AF00008335B01E3181A7130E0C046940000200F
:100B00007F0000208000002082000020860000205E
:100B100088000020020300000103000021200000E3
:100B2000A12100002122000078110000080000200F
:100B3000701100005C1100006011000084000020B2
:100B40008A0000200B8808222868934201D80A886E
:100B500092B207490023FFF797FB07E0201CFFF73D
:100B600023FC03E0201C0121FFF714FCF7BDC04665
:100B70004C00002007B5054B0122019001A918681F
:100B8000131CFFF781FB01200EBDC046140200209C
:100B900013B5054B6C4607341868211C0122FFF77A
:100BA000BBFB207816BDC0461402002010B5074CD0
:100BB000201CFFF7C1FA031C0020834205D02268E5
:100BC0004823FF33D05C0123184010BD14020020DD
:100BD00010B5054A0C1C031C191C10680123221CAB
:100BE000FFF752FB201C10BD1402002070B5084C0A
:100BF000061C201C0D1CFFF79FFA0023984205D00D
:100C00002068311C2A1CFFF787FB031C181C70BDD1
:100C100014020020F8B50C4C051C201C0E1CFFF71C
:100C20008BFA0023271C341C98420AD0002C07D0D2
:100C3000291C221C3868FFF76FFB241A2D18F5E7D2
:100C4000331C181CF8BDC0461402002008B5031C54
:100C5000081C111C984708BD002802D1014A024B0C
:100C60001A6070478C1100007802002030B50A1C11
:100C70001C4985B00978031C00292AD0042A01D117
:100C8000006804E0022A01D1008800E000785200E8
:100C900004A98B180B3B9C1AA3420BD00F210140D7
:100CA000092902D83025294300E03731197000099D
:100CB000013BF1E701A930230B7078234B700A2028
:100CC0008B1898700D20D870074B04321B68D868B9
:100CD00003E005490968C868191CFFF7B7FF05B0AC
:100CE00030BDC046900000207802002072B6EFF3BD
:100CF0000883044A1360036883F30888436818472D
:100D00007047C0467C02002070470000F0B5D04C10
:100D100000232360CF4B7A2287B01A70CE4DCF4E7E
:100D20002B68301C1B6940219847CD4B002218606E
:100D3000CC4B2F1C1E60CC4B1A60CB4DC8492A6887
:100D400009688A42EAD2C74B1B681A78FF2A00D189
:100D5000C4E1232A00D06AE1C44E3378002B06D0C8
:100D6000BD4BC3491B680222D868FFF76FFFB94823
:100D70000378532B39D1BA492A680B6893421CD99E
:100D8000B84801322A609A1ABA4B01681B680131CF
:100D90000160B94E9A4201D2326000E0336032689D
:100DA000206800F0B7F9336828681A182A60AD4A3D
:100DB0001068C1181160B14A1370AB49AA4A09689A
:100DC0000B1C013B1360A74B1A68013A1A60AB4B2E
:100DD000A84A1B7811688B4205D29F4AC91A12682B
:100DE000206892699047C0460FE1522B07D19A4B79
:100DF000A04A1B6811685B692068984705E14F2B82
:100E000004D19C4B20681B680370FEE0482B04D182
:100E1000984B21681B680B80F7E0572B04D1954A4B
:100E2000236812681A60F0E06F2B02D1206801215C
:100E300006E0682B07D122688E48138802210360E0
:100E4000FFF714FFE1E0772B05D1236889481B6881
:100E500004210360F4E7472B13D1864B1868FFF792
:100E600045FF874B1B6883F3088862B6854B1B7868
:100E7000002B00D1C9E0784B06201B681B689847FF
:100E8000C3E0542B04D101233370734B1B6868E01B
:100E90004E2B0CD13378002B06D16F4B74491B6855
:100EA0000222D868FFF7D2FE00233370ADE0562B44
:100EB0005BD13B687449D8680122FFF7C7FE3B68E5
:100EC0007249D8680322FFF7C1FE3B68704DD868AD
:100ED000291C0122FFF7BAFE3B686E49D8680D2233
:100EE000FFF7B4FE3B68291CD8680122FFF7AEFE6D
:100EF0005C4B69495C4E19605A4A00233360301CD0
:100F000013685D1C15601B780393002B03D00368E6
:100F100001330360F4E7504D32682B68D868FFF75F
:100F200095FE2B685A490122D868FFF78FFE039877
:100F30005A494C4A306011604A4A1368581C106084
:100F40001B78002B04D0484B1A6801321A60F3E773
:100F50003B68D868444B1B681A1C0193FFF776FE68
:100F60003B68D868424902224DE0424A582B07D1DB
:100F70001068FFF72DFB384B49491B68D86841E0E2
:100F8000592B0FD11068474B002802D120681860F8
:100F900003E019682268FFF731FB2F4B42491B68B9
:100FA000D8682FE05A2B30D1256813680026EB183B
:100FB000039303998D4206D02878311C00F09EF8E7
:100FC0000135061CF5E7244B38491B680122D86817
:100FD000FFF73CFE07230F223240111C3609303147
:100FE000092A00DD07311022D21868461154013B4E
:100FF000F1D23B6804A9D8680822FFF727FE3B68B6
:101000002B49D8680322FFF721FE12497A230B707F
:10101000184B00221A60154B1B7893425ED00E4B82
:1010200024491B680122D868FFF710FE56E0111C06
:101030003039C8B20F4B092804D81868020111438F
:1010400019604BE0111C4139052935D8373A38E091
:10105000740200202C0200207802002034020020BC
:1010600024020020280200203002002090000020EE
:10107000CC11000080020020840200202002002009
:101080007C02002091000020A8110000D111000076
:10109000AA110000D5110000AC110000B811000029
:1010A000C11100008C000020C5110000C911000012
:1010B000CB110000CF110000111C6139052904D8A3
:1010C000573A186801010A4307E02C2A02D119682F
:1010D000216001E00648027000221A60054B1A6880
:1010E00001321A60044B1A6801321A6025E6C046C4
:1010F0002C02002030020020280200200B0A584059
:10110000034B4000C05A0902484080B27047C046B5
:10111000E411000010B50023934203D0CC5CC4540A
:101120000133F9E710BD031C8218934202D01970F5
:101130000133FAE770470023C25C0133002AFBD178
:10114000581E7047F8B5C046F8BC08BC9E467047AC
:10115000F8B5C046F8BC08BC9E46704704030904B5
:101160004D61747461697254656368204C4C43002E
:1011700058656E6F0000000012010002020000407E
:10118000D01657050002010200010000750B000097
:10119000910B0000AD0B0000D10B0000ED0B000027
:1011A000D10B0000150C0000760020004E6F762059
:1011B000313620323031370031353A33323A353733
:1011C00000580A0D00590A0D005A00230A0D003E6E
:1011D00000322E30005B41726475696E6F3A585967
:1011E0005A5D000000002110422063308440A55069
:1011F000C660E770088129914AA16BB18CC1ADD15D
:10120000CEE1EFF13112100273325222B552944204
:10121000F772D662399318837BB35AA3BDD39CC3AC
:10122000FFF3DEE36224433420040114E664C77450
:10123000A44485546AA54BB528850995EEE5CFF5FC
:10124000ACC58DD55336722611163006D776F666A4
:101250009556B4465BB77AA719973887DFF7FEE74C
:101260009DD7BCC7C448E5588668A7784008611870
:1012700002282338CCC9EDD98EE9AFF9488969999C
:101280000AA92BB9F55AD44AB77A966A711A500A44
:10129000333A122AFDDBDCCBBFFB9EEB799B588BEC
:1012A0003BBB1AABA66C877CE44CC55C222C033C90
:1012B000600C411CAEED8FFDECCDCDDD2AAD0BBD3C
:1012C000688D499D977EB66ED55EF44E133E322EE4
:1012D000511E700E9FFFBEEFDDDFFCCF1BBF3AAF8C
:1012E000599F788F8891A981CAB1EBA10CD12DC1EA
:1012F0004EF16FE18010A100C230E3200450254080
:1013000046706760B9839893FBA3DAB33DC31CD3DF
:101310007FE35EF3B1029012F322D23235421452CF
:1013200077625672EAB5CBA5A89589856EF54FE52B
:101330002CD50DC5E234C324A0148104667447641F
:1013400024540544DBA7FAB79987B8975FE77EF77F
:101350001DC73CD7D326F2369106B016576676766F
:10136000154634564CD96DC90EF92FE9C899E9894B
:101370008AB9ABA94458654806782768C018E108BF
:101380008238A3287DCB5CDB3FEB1EFBF98BD89B1F
:10139000BBAB9ABB754A545A376A167AF10AD01A0F
:1013A000B32A923A2EFD0FED6CDD4DCDAABD8BAD6B
:1013B000E89DC98D267C076C645C454CA23C832C5F
:1013C000E01CC10C1FEF3EFF5DCF7CDF9BAFBABFBF
:1013D000D98FF89F176E367E554E745E932EB23EAF
:0813E000D10EF01E0000000018
:1013E8000814050040420F00090243000201008072
:1013F8003209040000010202000005240010010463
:1014080024020005240600010524010001070583C4
:10141800030800FF09040100020A00000007058113
:1014280002400000070502024000000000C201005F
:1014380000000800690000004100000000000000F2
:0400000300000539BB
:00000001FF
