:10000000FC7F00202D0200001D02000021020000E4
:1000100000000000000000000000000000000000E0
:1000200000000000000000000000000025020000A9
:10003000000000000000000029020000450400004C
:1000400010B5064C2378002B07D1054B002B02D0AE
:10005000044800E000BF0123237010BD14000020FD
:10006000000000009C0B000008B5084B002B03D0DB
:100070000748084900E000BF07480368002B03D089
:10008000064B002B00D0984708BDC046000000007A
:100090009C0B000018000020100000200000000051
:1000A00010B52049204B0A78002A08D11F4A187839
:1000B00012788218D2B21A701D4A042010600A7891
:1000C0000132D2B20A701A78F02A08D9174A107889
:1000D0004042C0B2107018781278821817E0154AA2
:1000E0001C781078844214D21048047864B2002C32
:1000F0000FDA1478052C01D1462400E00524147091
:1001000002785242D2B202701C780278A218D2B29F
:100110001A700A781B789A4202D1054B04221A60A1
:1001200010BDC0463000002001000020000000206B
:100130009C44004102000020024BDB68DA06FBD53C
:100140007047C04600080040F8B5294B80215A6826
:10015000284F0A435A605A681E218A4302210A43E3
:100160005A60BB6908221343234EBB6101233370DD
:100170003378DA0704D5204B5B785BB2002BF7DBD2
:100180001E4C8022A38C00259343A384FFF7D4FF49
:100190001B4B1A688023920E92029B001343A362AA
:1001A000184BE36292235B00A384FFF7C5FFA38C87
:1001B00002221343A384FFF7BFFFB56000F0D0F81D
:1001C000114B736000F0CCF8226A104B134023628D
:1001D0000323B36000F0C4F80D4B736000F0C0F867
:1001E0000C4A0D4B1A603D727D72BD72FD72F8BDF6
:1001F0000040004100040040000C004000080040A6
:100200002460800080BB0A7C00070300FFFCFFFF26
:1002100003060100006CDC02040000200EBEFEE7B5
:100220000DBEFEE705BEFEE702BEFEE71D4A1E4804
:1002300070B5824204D11D4A1D4B93422CD10AE075
:100240001C4C9442F7D00023D1188842F3D9E558CA
:1002500004330D60F8E7184B02225A62174B032152
:10026000D8780C2488431043D870DD780820A54343
:100270000543DD70124B30269D7BB5432026354368
:100280009D739D7BA54328439873987B88430243C5
:100290009A7300F06DF804E09342DCD2002102C3AF
:1002A000FAE7FEE70000002014000020A400002070
:1002B00014000020A00B0000FC7000410050004121
:1002C00000480041074B98420AD8074B4208DA61C0
:1002D000064A1A801A7DD107FCD50130FF30F1E7BC
:1002E0007047C046FFFF03000040004102A5FFFF2A
:1002F000F0B58008002819D00D4C0E4B251C23802A
:100300002B7DDE07FCD500239E008F5901339751CA
:10031000102B01D08342F7D1074E26802C7DE607B3
:10032000FCD59C0012190919C01AE3E7F0BDC046BC
:100330000040004144A5FFFF04A5FFFF064B8208D3
:100340001968064B994201D10C2242430023934283
:1003500001D00133FBE7704704000020006CDC0291
:10036000024B5B785BB2002BFADB7047000C00405D
:10037000F8B5284D284E2A6801321FD0EBB2002B69
:100380001CD1264A264C17780122174001D0236041
:100390000AE02268234B9A4201D127600EE02360D5
:1003A0002148FFF7CBFF27601A4A136883F30888B8
:1003B000FF239D43174BB5605B681847FFF7C4FEEA
:1003C00062B61A4B04241C60194B1A4A1C601A4B63
:1003D0005A60316AC0220902090A12060A433262CF
:1003E00000229A6007221A60FFF70AFE134B051CD1
:1003F0001C70AB68281C9847114B002801D00122C3
:100400001A701B78002BF4D0002000F027F800F0C1
:100410007FF8FCE70020000000ED00E03804004019
:10042000FC7F00203581730720A10700884400412C
:1004300094440041BF03000010E000E000000020F1
:100440003100002008B5FFF72BFE00F05FF808BD73
:1004500008B5031C081C111C984708BD002802D1D0
:10046000014A024B1A6070474409000094000020C2
:1004700030B50A1C1C4985B00978031C00292AD014
:10048000042A01D1006804E0022A01D1008800E0BA
:100490000078520004A98B180B3B9C1AA3420BD086
:1004A0000F210140092902D83025294300E03731C6
:1004B00019700009013BF1E701A930230B70782383
:1004C0004B700A208B1898700D20D870074B04329F
:1004D0001B68D86803E005490968C868191CFFF75C
:1004E000B7FF05B030BDC0463800002094000020A2
:1004F00072B6EFF30883044A1360036883F3088835
:10050000436818477047C0469800002070470000B5
:10051000F0B5D04C00232360CF4B7A2287B01A70FD
:10052000CE4DCF4E2B68301C1B6940219847CD4BD8
:1005300000221860CC4B2F1C1E60CC4B1A60CB4D98
:10054000C8492A6809688A42EAD2C74B1B681A78E8
:10055000FF2A00D1C4E1232A00D06AE1C44E3378D7
:10056000002B06D0BD4BC3491B680222D868FFF799
:100570006FFFB9480378532B39D1BA492A680B6801
:1005800093421CD9B84801322A609A1ABA4B0168C2
:100590001B6801310160B94E9A4201D2326000E01D
:1005A00033603268206800F0B7F9336828681A1899
:1005B0002A60AD4A1068C1181160B14A1370AB4986
:1005C000AA4A09680B1C013B1360A74B1A68013A41
:1005D0001A60AB4BA84A1B7811688B4205D29F4A20
:1005E000C91A1268206892699047C0460FE1522BE1
:1005F00007D19A4BA04A1B6811685B69206898472D
:1006000005E14F2B04D19C4B20681B680370FEE072
:10061000482B04D1984B21681B680B80F7E0572BBF
:1006200004D1954A236812681A60F0E06F2B02D15A
:100630002068012106E0682B07D122688E481388C4
:1006400002210360FFF714FFE1E0772B05D1236857
:1006500089481B6804210360F4E7472B13D1864BBC
:100660001868FFF745FF874B1B6883F3088862B65D
:10067000854B1B78002B00D1C9E0784B06201B6806
:100680001B689847C3E0542B04D101233370734B8C
:100690001B6868E04E2B0CD13378002B06D16F4BD2
:1006A00074491B680222D868FFF7D2FE002333701A
:1006B000ADE0562B5BD13B687449D8680122FFF747
:1006C000C7FE3B687249D8680322FFF7C1FE3B684A
:1006D000704DD868291C0122FFF7BAFE3B686E49AD
:1006E000D8680D22FFF7B4FE3B68291CD8680122A8
:1006F000FFF7AEFE5C4B69495C4E19605A4A002315
:100700003360301C13685D1C15601B780393002B4D
:1007100003D0036801330360F4E7504D32682B685F
:10072000D868FFF795FE2B685A490122D868FFF771
:100730008FFE03985A494C4A306011604A4A136848
:10074000581C10601B78002B04D0484B1A680132EB
:100750001A60F3E73B68D868444B1B681A1C019386
:10076000FFF776FE3B68D868424902224DE0424AD4
:10077000582B07D11068FFF7A5FD384B49491B6876
:10078000D86841E0592B0FD11068474B002802D19F
:100790002068186003E019682268FFF7A9FD2F4B55
:1007A00042491B68D8682FE05A2B30D1256813685E
:1007B0000026EB18039303998D4206D02878311C4C
:1007C00000F09EF80135061CF5E7244B38491B68FC
:1007D0000122D868FFF73CFE07230F223240111C8C
:1007E00036093031092A00DD07311022D218684657
:1007F0001154013BF1D23B6804A9D8680822FFF7E5
:1008000027FE3B682B49D8680322FFF721FE1249D7
:100810007A230B70184B00221A60154B1B789342F9
:100820005ED00E4B24491B680122D868FFF710FEEA
:1008300056E0111C3039C8B20F4B092804D818688B
:100840000201114319604BE0111C4139052935D8CB
:10085000373A38E090000020480000209400002043
:100860005000002040000020440000204C000020E8
:1008700038000020840900009C000020A000002017
:100880003C00002098000020390000206009000092
:1008900089090000620900008D0900006409000058
:1008A0007009000079090000340000207D09000073
:1008B000810900008309000087090000111C6139CB
:1008C000052904D8573A186801010A4307E02C2A81
:1008D00002D11968216001E00648027000221A6006
:1008E000054B1A6801321A60044B1A6801321A600B
:1008F00025E6C046480000204C00002044000020AF
:100900000B0A5840034B4000C05A0902484080B2CD
:100910007047C0469C09000010B50023934203D0E5
:10092000CC5CC4540133F9E710BD0000F8B5C046F3
:10093000F8BC08BC9E467047F8B5C046F8BC08BC79
:100940009E4670470000000000000000000000000C
:100950000000000000000000000000000000000097
:10096000760020004E6F762031362032303137004D
:1009700031353A33323A353700580A0D00590A0DED
:10098000005A00230A0D003E00322E30005B4172F7
:100990006475696E6F3A58595A5D00000000211065
:1009A000422063308440A550C660E77008812991D9
:1009B0004AA16BB18CC1ADD1CEE1EFF13112100281
:1009C00073325222B5529442F772D6623993188329
:1009D0007BB35AA3BDD39CC3FFF3DEE3622443344D
:1009E00020040114E664C774A44485546AA54BB579
:1009F00028850995EEE5CFF5ACC58DD55336722621
:100A000011163006D776F6669556B4465BB77AA7C8
:100A100019973887DFF7FEE79DD7BCC7C448E5586C
:100A20008668A7784008611802282338CCC9EDD918
:100A30008EE9AFF9488969990AA92BB9F55AD44AC0
:100A4000B77A966A711A500A333A122AFDDBDCCB68
:100A5000BFFB9EEB799B588B3BBB1AABA66C877C8C
:100A6000E44CC55C222C033C600C411CAEED8FFDB8
:100A7000ECCDCDDD2AAD0BBD688D499D977EB66E60
:100A8000D55EF44E133E322E511E700E9FFFBEEF08
:100A9000DDDFFCCF1BBF3AAF599F788F8891A981CA
:100AA000CAB1EBA10CD12DC14EF16FE18010A100B4
:100AB000C230E3200450254046706760B9839893A4
:100AC000FBA3DAB33DC31CD37FE35EF3B102901204
:100AD000F322D2323542145277625672EAB5CBA570
:100AE000A89589856EF54FE52CD50DC5E234C32454
:100AF000A01481046674476424540544DBA7FAB744
:100B00009987B8975FE77EF71DC73CD7D326F236A3
:100B10009106B01657667676154634564CD96DC98F
:100B20000EF92FE9C899E9898AB9ABA944586548F3
:100B300006782768C018E1088238A3287DCB5CDBE3
:100B40003FEB1EFBF98BD89BBBAB9ABB754A545A43
:100B5000376A167AF10AD01AB32A923A2EFD0FEDAF
:100B60006CDD4DCDAABD8BADE89DC98D267C076C93
:100B7000645C454CA23C832CE01CC10C1FEF3EFF83
:100B80005DCF7CDF9BAFBABFD98FF89F176E367EE3
:100B9000554E745E932EB23ED10EF01E0000000042
:100BA0000814050040420F006900000041000000E9
:040BB0000000000041
:040000030000022DCA
:00000001FF
